{
  "contractName": "Voting",
  "abi": [
    {
      "inputs": [],
      "stateMutability": "nonpayable",
      "type": "constructor"
    },
    {
      "anonymous": false,
      "inputs": [
        {
          "indexed": true,
          "internalType": "uint256",
          "name": "candidateId",
          "type": "uint256"
        }
      ],
      "name": "VoteEvent",
      "type": "event"
    },
    {
      "inputs": [
        {
          "internalType": "uint256",
          "name": "",
          "type": "uint256"
        }
      ],
      "name": "candidates",
      "outputs": [
        {
          "internalType": "string",
          "name": "name",
          "type": "string"
        },
        {
          "internalType": "uint256",
          "name": "voteCount",
          "type": "uint256"
        }
      ],
      "stateMutability": "view",
      "type": "function",
      "constant": true
    },
    {
      "inputs": [],
      "name": "candidatesCount",
      "outputs": [
        {
          "internalType": "uint256",
          "name": "",
          "type": "uint256"
        }
      ],
      "stateMutability": "view",
      "type": "function",
      "constant": true
    },
    {
      "inputs": [
        {
          "internalType": "string",
          "name": "name",
          "type": "string"
        }
      ],
      "name": "addCandidate",
      "outputs": [],
      "stateMutability": "nonpayable",
      "type": "function"
    },
    {
      "inputs": [
        {
          "internalType": "uint256",
          "name": "candidateId",
          "type": "uint256"
        }
      ],
      "name": "vote",
      "outputs": [],
      "stateMutability": "nonpayable",
      "type": "function"
    },
    {
      "inputs": [],
      "name": "getCandidateNames",
      "outputs": [
        {
          "internalType": "string[]",
          "name": "",
          "type": "string[]"
        }
      ],
      "stateMutability": "view",
      "type": "function",
      "constant": true
    },
    {
      "inputs": [],
      "name": "getCandidateVotes",
      "outputs": [
        {
          "internalType": "string[]",
          "name": "",
          "type": "string[]"
        }
      ],
      "stateMutability": "view",
      "type": "function",
      "constant": true
    }
  ],
  "bytecode": "0x60806040523480156200001157600080fd5b50620000586040518060400160405280600381526020017f424a500000000000000000000000000000000000000000000000000000000000815250620000a460201b60201c565b6200009e6040518060400160405280600881526020017f436f6e6772657373000000000000000000000000000000000000000000000000815250620000a460201b60201c565b620002b3565b6040518060400160405280828152602001600081525060008060015481526020019081526020016000206000820151816000019080519060200190620000ec92919062000117565b5060208201518160010155905050600160008154809291906200010f9062000207565b919050555050565b8280546200012590620001d1565b90600052602060002090601f01602090048101928262000149576000855562000195565b82601f106200016457805160ff191683800117855562000195565b8280016001018555821562000195579182015b828111156200019457825182559160200191906001019062000177565b5b509050620001a49190620001a8565b5090565b5b80821115620001c3576000816000905550600101620001a9565b5090565b6000819050919050565b60006002820490506001821680620001ea57607f821691505b6020821081141562000201576200020062000284565b5b50919050565b60006200021482620001c7565b91507fffffffffffffffffffffffffffffffffffffffffffffffffffffffffffffffff8214156200024a576200024962000255565b5b600182019050919050565b7f4e487b7100000000000000000000000000000000000000000000000000000000600052601160045260246000fd5b7f4e487b7100000000000000000000000000000000000000000000000000000000600052602260045260246000fd5b610e2580620002c36000396000f3fe608060405234801561001057600080fd5b50600436106100625760003560e01c80630121b93f1461006757806329ab36ec146100835780632d35a8a2146100a15780633477ee2e146100bf578063462e91ec146100f057806372b9d6161461010c575b600080fd5b610081600480360381019061007c9190610891565b61012a565b005b61008b6101d6565b6040516100989190610a04565b60405180910390f35b6100a96102dc565b6040516100b69190610a76565b60405180910390f35b6100d960048036038101906100d49190610891565b6102e2565b6040516100e7929190610a26565b60405180910390f35b61010a60048036038101906101059190610850565b61038e565b005b6101146103fd565b6040516101219190610a04565b60405180910390f35b6000811015801561013c575060015481105b61017b576040517f08c379a000000000000000000000000000000000000000000000000000000000815260040161017290610a56565b60405180910390fd5b60008082815260200190815260200160002060010160008154809291906101a190610c91565b9190505550807fc00232df16a35660dbcdde113a8565e8848dc6202169f47b8f35e8c2511d40bc60405160405180910390a250565b6060600060015467ffffffffffffffff81111561021c577f4e487b7100000000000000000000000000000000000000000000000000000000600052604160045260246000fd5b60405190808252806020026020018201604052801561024f57816020015b606081526020019060019003908161023a5790505b50905060005b6001548110156102d45761027d60008083815260200190815260200160002060010154610583565b8282815181106102b6577f4e487b7100000000000000000000000000000000000000000000000000000000600052603260045260246000fd5b602002602001018190525080806102cc90610c91565b915050610255565b508091505090565b60015481565b600060205280600052604060002060009150905080600001805461030590610c5f565b80601f016020809104026020016040519081016040528092919081815260200182805461033190610c5f565b801561037e5780601f106103535761010080835404028352916020019161037e565b820191906000526020600020905b81548152906001019060200180831161036157829003601f168201915b5050505050908060010154905082565b60405180604001604052808281526020016000815250600080600154815260200190815260200160002060008201518160000190805190602001906103d4929190610730565b5060208201518160010155905050600160008154809291906103f590610c91565b919050555050565b6060600060015467ffffffffffffffff811115610443577f4e487b7100000000000000000000000000000000000000000000000000000000600052604160045260246000fd5b60405190808252806020026020018201604052801561047657816020015b60608152602001906001900390816104615790505b50905060005b60015481101561057b5760008082815260200190815260200160002060000180546104a690610c5f565b80601f01602080910402602001604051908101604052809291908181526020018280546104d290610c5f565b801561051f5780601f106104f45761010080835404028352916020019161051f565b820191906000526020600020905b81548152906001019060200180831161050257829003601f168201915b505050505082828151811061055d577f4e487b7100000000000000000000000000000000000000000000000000000000600052603260045260246000fd5b6020026020010181905250808061057390610c91565b91505061047c565b508091505090565b606060008214156105cb576040518060400160405280600181526020017f3000000000000000000000000000000000000000000000000000000000000000815250905061072b565b600082905060005b600082146105fd5780806105e690610c91565b915050600a826105f69190610bae565b91506105d3565b60008167ffffffffffffffff81111561063f577f4e487b7100000000000000000000000000000000000000000000000000000000600052604160045260246000fd5b6040519080825280601f01601f1916602001820160405280156106715781602001600182028036833780820191505090505b5090505b600085146107245760018261068a9190610bdf565b9150600a856106999190610cda565b60306106a59190610b58565b60f81b8183815181106106e1577f4e487b7100000000000000000000000000000000000000000000000000000000600052603260045260246000fd5b60200101907effffffffffffffffffffffffffffffffffffffffffffffffffffffffffffff1916908160001a905350600a8561071d9190610bae565b9450610675565b8093505050505b919050565b82805461073c90610c5f565b90600052602060002090601f01602090048101928261075e57600085556107a5565b82601f1061077757805160ff19168380011785556107a5565b828001600101855582156107a5579182015b828111156107a4578251825591602001919060010190610789565b5b5090506107b291906107b6565b5090565b5b808211156107cf5760008160009055506001016107b7565b5090565b60006107e66107e184610ac2565b610a91565b9050828152602081018484840111156107fe57600080fd5b610809848285610c1d565b509392505050565b600082601f83011261082257600080fd5b81356108328482602086016107d3565b91505092915050565b60008135905061084a81610dd8565b92915050565b60006020828403121561086257600080fd5b600082013567ffffffffffffffff81111561087c57600080fd5b61088884828501610811565b91505092915050565b6000602082840312156108a357600080fd5b60006108b18482850161083b565b91505092915050565b60006108c68383610943565b905092915050565b60006108d982610b02565b6108e38185610b25565b9350836020820285016108f585610af2565b8060005b85811015610931578484038952815161091285826108ba565b945061091d83610b18565b925060208a019950506001810190506108f9565b50829750879550505050505092915050565b600061094e82610b0d565b6109588185610b36565b9350610968818560208601610c2c565b61097181610dc7565b840191505092915050565b600061098782610b0d565b6109918185610b47565b93506109a1818560208601610c2c565b6109aa81610dc7565b840191505092915050565b60006109c2601183610b47565b91507f496e76616c69642063616e6469646174650000000000000000000000000000006000830152602082019050919050565b6109fe81610c13565b82525050565b60006020820190508181036000830152610a1e81846108ce565b905092915050565b60006040820190508181036000830152610a40818561097c565b9050610a4f60208301846109f5565b9392505050565b60006020820190508181036000830152610a6f816109b5565b9050919050565b6000602082019050610a8b60008301846109f5565b92915050565b6000604051905081810181811067ffffffffffffffff82111715610ab857610ab7610d98565b5b8060405250919050565b600067ffffffffffffffff821115610add57610adc610d98565b5b601f19601f8301169050602081019050919050565b6000819050602082019050919050565b600081519050919050565b600081519050919050565b6000602082019050919050565b600082825260208201905092915050565b600082825260208201905092915050565b600082825260208201905092915050565b6000610b6382610c13565b9150610b6e83610c13565b9250827fffffffffffffffffffffffffffffffffffffffffffffffffffffffffffffffff03821115610ba357610ba2610d0b565b5b828201905092915050565b6000610bb982610c13565b9150610bc483610c13565b925082610bd457610bd3610d3a565b5b828204905092915050565b6000610bea82610c13565b9150610bf583610c13565b925082821015610c0857610c07610d0b565b5b828203905092915050565b6000819050919050565b82818337600083830152505050565b60005b83811015610c4a578082015181840152602081019050610c2f565b83811115610c59576000848401525b50505050565b60006002820490506001821680610c7757607f821691505b60208210811415610c8b57610c8a610d69565b5b50919050565b6000610c9c82610c13565b91507fffffffffffffffffffffffffffffffffffffffffffffffffffffffffffffffff821415610ccf57610cce610d0b565b5b600182019050919050565b6000610ce582610c13565b9150610cf083610c13565b925082610d0057610cff610d3a565b5b828206905092915050565b7f4e487b7100000000000000000000000000000000000000000000000000000000600052601160045260246000fd5b7f4e487b7100000000000000000000000000000000000000000000000000000000600052601260045260246000fd5b7f4e487b7100000000000000000000000000000000000000000000000000000000600052602260045260246000fd5b7f4e487b7100000000000000000000000000000000000000000000000000000000600052604160045260246000fd5b6000601f19601f8301169050919050565b610de181610c13565b8114610dec57600080fd5b5056fea2646970667358221220a2c460792b82098402da36524bdadba406edef109b71a0cab8395b06168cd84964736f6c63430008000033",
  "immutableReferences": {},
  "source": "// SPDX-License-Identifier: MIT\npragma solidity ^0.8.0;\n\ncontract Voting {\n    struct Candidate {\n        string name;\n        uint voteCount;\n    }\n\n    mapping(uint => Candidate) public candidates;\n    uint public candidatesCount;\n\n    event VoteEvent(uint indexed candidateId);\n\n    constructor() {\n        addCandidate(\"BJP\");\n        addCandidate(\"Congress\");\n        //change names to addCandidate(\"justin\"); \n        //change names to addCandidate(\"gundu mani\"); \n    }\n\n    function addCandidate(string memory name) public {\n        candidates[candidatesCount] = Candidate(name, 0);\n        candidatesCount++;\n    }\n\n    function vote(uint candidateId) public {\n        require(candidateId >= 0 && candidateId < candidatesCount, \"Invalid candidate\");\n\n        candidates[candidateId].voteCount++;\n        emit VoteEvent(candidateId);\n    }\n\n    function getCandidateNames() public view returns (string[] memory) {\n        string[] memory names = new string[](candidatesCount);\n        for (uint i = 0; i < candidatesCount; i++) {\n            names[i] = candidates[i].name;\n        }\n        return names;\n    }\n\n    function uintToString(uint v) internal pure returns (string memory) {\n        if (v == 0) {\n            return \"0\";\n        }\n        uint temp = v;\n        uint digits;\n        while (temp != 0) {\n            digits++;\n            temp /= 10;\n        }\n        bytes memory buffer = new bytes(digits);\n        while (v != 0) {\n            digits -= 1;\n            buffer[digits] = bytes1(uint8(48 + v % 10));\n            v /= 10;\n        }\n        return string(buffer);\n    }\n\n    function getCandidateVotes() public view returns (string[] memory) {\n        string[] memory votes = new string[](candidatesCount);\n        for (uint i = 0; i < candidatesCount; i++) {\n            votes[i] = uintToString(candidates[i].voteCount);\n        }\n        return votes;\n    }\n}\n",
  "sourcePath": "C:\\Users\\Pravalika\\Downloads\\Block Cain  Original Project\\New folder\\ev-contracts\\contracts\\Voting.sol",
  "compiler": {
    "name": "solc",
    "version": "0.8.0+commit.c7dfd78e.Emscripten.clang"
  },
  "schemaVersion": "3.4.16",
  "updatedAt": "2024-12-05T07:00:08.799Z",
  "networkType": "ethereum",
  "devdoc": {
    "kind": "dev",
    "methods": {},
    "version": 1
  },
  "userdoc": {
    "kind": "user",
    "methods": {},
    "version": 1
  }
}